{
  "_format": "hh-sol-artifact-1",
  "contractName": "SHLD",
  "sourceName": "contracts/SHLD.sol",
  "abi": [
    {
      "anonymous": false,
      "inputs": [
        {
          "indexed": true,
          "internalType": "address",
          "name": "owner",
          "type": "address"
        },
        {
          "indexed": true,
          "internalType": "address",
          "name": "approved",
          "type": "address"
        },
        {
          "indexed": true,
          "internalType": "uint256",
          "name": "tokenId",
          "type": "uint256"
        }
      ],
      "name": "Approval",
      "type": "event"
    },
    {
      "anonymous": false,
      "inputs": [
        {
          "indexed": true,
          "internalType": "address",
          "name": "owner",
          "type": "address"
        },
        {
          "indexed": true,
          "internalType": "address",
          "name": "operator",
          "type": "address"
        },
        {
          "indexed": false,
          "internalType": "bool",
          "name": "approved",
          "type": "bool"
        }
      ],
      "name": "ApprovalForAll",
      "type": "event"
    },
    {
      "anonymous": false,
      "inputs": [
        {
          "indexed": false,
          "internalType": "uint8",
          "name": "version",
          "type": "uint8"
        }
      ],
      "name": "Initialized",
      "type": "event"
    },
    {
      "anonymous": false,
      "inputs": [
        {
          "indexed": true,
          "internalType": "address",
          "name": "previousOwner",
          "type": "address"
        },
        {
          "indexed": true,
          "internalType": "address",
          "name": "newOwner",
          "type": "address"
        }
      ],
      "name": "OwnershipTransferred",
      "type": "event"
    },
    {
      "anonymous": false,
      "inputs": [
        {
          "indexed": true,
          "internalType": "address",
          "name": "from",
          "type": "address"
        },
        {
          "indexed": true,
          "internalType": "address",
          "name": "to",
          "type": "address"
        },
        {
          "indexed": true,
          "internalType": "uint256",
          "name": "tokenId",
          "type": "uint256"
        }
      ],
      "name": "Transfer",
      "type": "event"
    },
    {
      "inputs": [],
      "name": "MAX_SUPPLY",
      "outputs": [
        {
          "internalType": "uint256",
          "name": "",
          "type": "uint256"
        }
      ],
      "stateMutability": "view",
      "type": "function"
    },
    {
      "inputs": [],
      "name": "MAX_TOKENS_PER_MINT",
      "outputs": [
        {
          "internalType": "uint256",
          "name": "",
          "type": "uint256"
        }
      ],
      "stateMutability": "view",
      "type": "function"
    },
    {
      "inputs": [],
      "name": "PROVENANCE_HASH",
      "outputs": [
        {
          "internalType": "string",
          "name": "",
          "type": "string"
        }
      ],
      "stateMutability": "view",
      "type": "function"
    },
    {
      "inputs": [
        {
          "internalType": "address",
          "name": "to",
          "type": "address"
        },
        {
          "internalType": "uint256",
          "name": "tokenId",
          "type": "uint256"
        }
      ],
      "name": "approve",
      "outputs": [],
      "stateMutability": "nonpayable",
      "type": "function"
    },
    {
      "inputs": [
        {
          "internalType": "address",
          "name": "owner",
          "type": "address"
        }
      ],
      "name": "balanceOf",
      "outputs": [
        {
          "internalType": "uint256",
          "name": "",
          "type": "uint256"
        }
      ],
      "stateMutability": "view",
      "type": "function"
    },
    {
      "inputs": [],
      "name": "baseURI",
      "outputs": [
        {
          "internalType": "string",
          "name": "",
          "type": "string"
        }
      ],
      "stateMutability": "view",
      "type": "function"
    },
    {
      "inputs": [
        {
          "internalType": "uint256",
          "name": "_number",
          "type": "uint256"
        },
        {
          "internalType": "address",
          "name": "_receiver",
          "type": "address"
        }
      ],
      "name": "claimReserved",
      "outputs": [],
      "stateMutability": "nonpayable",
      "type": "function"
    },
    {
      "inputs": [],
      "name": "contractURI",
      "outputs": [
        {
          "internalType": "string",
          "name": "",
          "type": "string"
        }
      ],
      "stateMutability": "view",
      "type": "function"
    },
    {
      "inputs": [],
      "name": "flipSaleStarted",
      "outputs": [],
      "stateMutability": "nonpayable",
      "type": "function"
    },
    {
      "inputs": [
        {
          "internalType": "uint256",
          "name": "tokenId",
          "type": "uint256"
        }
      ],
      "name": "getApproved",
      "outputs": [
        {
          "internalType": "address",
          "name": "",
          "type": "address"
        }
      ],
      "stateMutability": "view",
      "type": "function"
    },
    {
      "inputs": [],
      "name": "getPrice",
      "outputs": [
        {
          "internalType": "uint256",
          "name": "",
          "type": "uint256"
        }
      ],
      "stateMutability": "view",
      "type": "function"
    },
    {
      "inputs": [],
      "name": "getReservedLeft",
      "outputs": [
        {
          "internalType": "uint256",
          "name": "",
          "type": "uint256"
        }
      ],
      "stateMutability": "view",
      "type": "function"
    },
    {
      "inputs": [
        {
          "internalType": "uint256",
          "name": "_startPrice",
          "type": "uint256"
        },
        {
          "internalType": "uint256",
          "name": "_maxSupply",
          "type": "uint256"
        },
        {
          "internalType": "uint256",
          "name": "_nReserved",
          "type": "uint256"
        },
        {
          "internalType": "uint256",
          "name": "_maxTokensPerMint",
          "type": "uint256"
        },
        {
          "internalType": "string",
          "name": "_uri",
          "type": "string"
        },
        {
          "internalType": "string",
          "name": "_name",
          "type": "string"
        },
        {
          "internalType": "string",
          "name": "_symbol",
          "type": "string"
        }
      ],
      "name": "initialize",
      "outputs": [],
      "stateMutability": "nonpayable",
      "type": "function"
    },
    {
      "inputs": [
        {
          "internalType": "address",
          "name": "owner",
          "type": "address"
        },
        {
          "internalType": "address",
          "name": "operator",
          "type": "address"
        }
      ],
      "name": "isApprovedForAll",
      "outputs": [
        {
          "internalType": "bool",
          "name": "",
          "type": "bool"
        }
      ],
      "stateMutability": "view",
      "type": "function"
    },
    {
      "inputs": [
        {
          "internalType": "uint256",
          "name": "_nbTokens",
          "type": "uint256"
        }
      ],
      "name": "mint",
      "outputs": [],
      "stateMutability": "payable",
      "type": "function"
    },
    {
      "inputs": [],
      "name": "name",
      "outputs": [
        {
          "internalType": "string",
          "name": "",
          "type": "string"
        }
      ],
      "stateMutability": "view",
      "type": "function"
    },
    {
      "inputs": [],
      "name": "owner",
      "outputs": [
        {
          "internalType": "address",
          "name": "",
          "type": "address"
        }
      ],
      "stateMutability": "view",
      "type": "function"
    },
    {
      "inputs": [
        {
          "internalType": "uint256",
          "name": "tokenId",
          "type": "uint256"
        }
      ],
      "name": "ownerOf",
      "outputs": [
        {
          "internalType": "address",
          "name": "",
          "type": "address"
        }
      ],
      "stateMutability": "view",
      "type": "function"
    },
    {
      "inputs": [],
      "name": "renounceOwnership",
      "outputs": [],
      "stateMutability": "nonpayable",
      "type": "function"
    },
    {
      "inputs": [
        {
          "internalType": "address",
          "name": "from",
          "type": "address"
        },
        {
          "internalType": "address",
          "name": "to",
          "type": "address"
        },
        {
          "internalType": "uint256",
          "name": "tokenId",
          "type": "uint256"
        }
      ],
      "name": "safeTransferFrom",
      "outputs": [],
      "stateMutability": "nonpayable",
      "type": "function"
    },
    {
      "inputs": [
        {
          "internalType": "address",
          "name": "from",
          "type": "address"
        },
        {
          "internalType": "address",
          "name": "to",
          "type": "address"
        },
        {
          "internalType": "uint256",
          "name": "tokenId",
          "type": "uint256"
        },
        {
          "internalType": "bytes",
          "name": "data",
          "type": "bytes"
        }
      ],
      "name": "safeTransferFrom",
      "outputs": [],
      "stateMutability": "nonpayable",
      "type": "function"
    },
    {
      "inputs": [],
      "name": "saleStarted",
      "outputs": [
        {
          "internalType": "bool",
          "name": "",
          "type": "bool"
        }
      ],
      "stateMutability": "view",
      "type": "function"
    },
    {
      "inputs": [
        {
          "internalType": "address",
          "name": "operator",
          "type": "address"
        },
        {
          "internalType": "bool",
          "name": "approved",
          "type": "bool"
        }
      ],
      "name": "setApprovalForAll",
      "outputs": [],
      "stateMutability": "nonpayable",
      "type": "function"
    },
    {
      "inputs": [
        {
          "internalType": "string",
          "name": "uri",
          "type": "string"
        }
      ],
      "name": "setBaseURI",
      "outputs": [],
      "stateMutability": "nonpayable",
      "type": "function"
    },
    {
      "inputs": [
        {
          "internalType": "address payable",
          "name": "_beneficiary",
          "type": "address"
        }
      ],
      "name": "setBeneficiary",
      "outputs": [],
      "stateMutability": "nonpayable",
      "type": "function"
    },
    {
      "inputs": [
        {
          "internalType": "uint256",
          "name": "_newPrice",
          "type": "uint256"
        }
      ],
      "name": "setPrice",
      "outputs": [],
      "stateMutability": "nonpayable",
      "type": "function"
    },
    {
      "inputs": [
        {
          "internalType": "string",
          "name": "provenanceHash",
          "type": "string"
        }
      ],
      "name": "setProvenanceHash",
      "outputs": [],
      "stateMutability": "nonpayable",
      "type": "function"
    },
    {
      "inputs": [],
      "name": "setStartingIndex",
      "outputs": [],
      "stateMutability": "nonpayable",
      "type": "function"
    },
    {
      "inputs": [],
      "name": "startingIndex",
      "outputs": [
        {
          "internalType": "uint256",
          "name": "",
          "type": "uint256"
        }
      ],
      "stateMutability": "view",
      "type": "function"
    },
    {
      "inputs": [
        {
          "internalType": "bytes4",
          "name": "interfaceId",
          "type": "bytes4"
        }
      ],
      "name": "supportsInterface",
      "outputs": [
        {
          "internalType": "bool",
          "name": "",
          "type": "bool"
        }
      ],
      "stateMutability": "view",
      "type": "function"
    },
    {
      "inputs": [],
      "name": "symbol",
      "outputs": [
        {
          "internalType": "string",
          "name": "",
          "type": "string"
        }
      ],
      "stateMutability": "view",
      "type": "function"
    },
    {
      "inputs": [
        {
          "internalType": "uint256",
          "name": "index",
          "type": "uint256"
        }
      ],
      "name": "tokenByIndex",
      "outputs": [
        {
          "internalType": "uint256",
          "name": "",
          "type": "uint256"
        }
      ],
      "stateMutability": "view",
      "type": "function"
    },
    {
      "inputs": [
        {
          "internalType": "address",
          "name": "owner",
          "type": "address"
        },
        {
          "internalType": "uint256",
          "name": "index",
          "type": "uint256"
        }
      ],
      "name": "tokenOfOwnerByIndex",
      "outputs": [
        {
          "internalType": "uint256",
          "name": "",
          "type": "uint256"
        }
      ],
      "stateMutability": "view",
      "type": "function"
    },
    {
      "inputs": [
        {
          "internalType": "uint256",
          "name": "tokenId",
          "type": "uint256"
        }
      ],
      "name": "tokenURI",
      "outputs": [
        {
          "internalType": "string",
          "name": "",
          "type": "string"
        }
      ],
      "stateMutability": "view",
      "type": "function"
    },
    {
      "inputs": [],
      "name": "totalSupply",
      "outputs": [
        {
          "internalType": "uint256",
          "name": "",
          "type": "uint256"
        }
      ],
      "stateMutability": "view",
      "type": "function"
    },
    {
      "inputs": [
        {
          "internalType": "address",
          "name": "from",
          "type": "address"
        },
        {
          "internalType": "address",
          "name": "to",
          "type": "address"
        },
        {
          "internalType": "uint256",
          "name": "tokenId",
          "type": "uint256"
        }
      ],
      "name": "transferFrom",
      "outputs": [],
      "stateMutability": "nonpayable",
      "type": "function"
    },
    {
      "inputs": [
        {
          "internalType": "address",
          "name": "newOwner",
          "type": "address"
        }
      ],
      "name": "transferOwnership",
      "outputs": [],
      "stateMutability": "nonpayable",
      "type": "function"
    },
    {
      "inputs": [
        {
          "internalType": "address",
          "name": "_owner",
          "type": "address"
        }
      ],
      "name": "walletOfOwner",
      "outputs": [
        {
          "internalType": "uint256[]",
          "name": "",
          "type": "uint256[]"
        }
      ],
      "stateMutability": "view",
      "type": "function"
    },
    {
      "inputs": [],
      "name": "withdraw",
      "outputs": [],
      "stateMutability": "nonpayable",
      "type": "function"
    }
  ],
  "bytecode": "0x608060405234801561001057600080fd5b50612874806100206000396000f3fe6080604052600436106102305760003560e01c80636c0360eb1161012e578063b0e1d7f3116100ab578063e8a3d4851161006f578063e8a3d48514610639578063e985e9c51461064e578063e986655014610697578063f2fde38b146106ac578063ff1b6556146106cc57610230565b8063b0e1d7f3146105ae578063b88d4fde146105ce578063c87b56dd146105ee578063cb774d471461060e578063daa023aa1461062457610230565b806391b7f5ed116100f257806391b7f5ed1461053157806395d89b411461055157806398d5fdca14610566578063a0712d681461057b578063a22cb4651461058e57610230565b80636c0360eb146104b457806370a08231146104c9578063715018a6146104e9578063899d7b38146104fe5780638da5cb5b1461051357610230565b806332cb6b0c116101bc5780634f6ccce7116101805780634f6ccce71461041357806353d2521a1461043357806355f804b3146104535780635c474f9e146104735780636352211e1461049457610230565b806332cb6b0c146103855780633377cd661461039b5780633ccfd60b146103b157806342842e0e146103c6578063438b6300146103e657610230565b8063109695231161020357806310969523146102e657806318160ddd146103065780631c31f7101461032557806323b872dd146103455780632f745c591461036557610230565b806301ffc9a71461023557806306fdde031461026a578063081812fc1461028c578063095ea7b3146102c4575b600080fd5b34801561024157600080fd5b50610255610250366004612340565b6106e1565b60405190151581526020015b60405180910390f35b34801561027657600080fd5b5061027f61070e565b60405161026191906125db565b34801561029857600080fd5b506102ac6102a7366004612418565b6107a0565b6040516001600160a01b039091168152602001610261565b3480156102d057600080fd5b506102e46102df366004612315565b6107c7565b005b3480156102f257600080fd5b506102e46103013660046123e5565b6108e2565b34801561031257600080fd5b506099545b604051908152602001610261565b34801561033157600080fd5b506102e46103403660046121d3565b610902565b34801561035157600080fd5b506102e4610360366004612227565b610944565b34801561037157600080fd5b50610317610380366004612315565b610975565b34801561039157600080fd5b5061031760fd5481565b3480156103a757600080fd5b5061031760fe5481565b3480156103bd57600080fd5b506102e4610a0b565b3480156103d257600080fd5b506102e46103e1366004612227565b610a98565b3480156103f257600080fd5b506104066104013660046121d3565b610ab3565b6040516102619190612597565b34801561041f57600080fd5b5061031761042e366004612418565b610b71565b34801561043f57600080fd5b506102e461044e366004612454565b610c12565b34801561045f57600080fd5b506102e461046e366004612378565b610d6d565b34801561047f57600080fd5b5061025561010054600160a01b900460ff1690565b3480156104a057600080fd5b506102ac6104af366004612418565b610d82565b3480156104c057600080fd5b5061027f610de2565b3480156104d557600080fd5b506103176104e43660046121d3565b610e71565b3480156104f557600080fd5b506102e4610ef7565b34801561050a57600080fd5b506102e4610f0b565b34801561051f57600080fd5b5060c9546001600160a01b03166102ac565b34801561053d57600080fd5b506102e461054c366004612418565b610fa3565b34801561055d57600080fd5b5061027f610fb0565b34801561057257600080fd5b5060fb54610317565b6102e4610589366004612418565b610fbf565b34801561059a57600080fd5b506102e46105a93660046122e4565b611186565b3480156105ba57600080fd5b506102e46105c9366004612430565b611191565b3480156105da57600080fd5b506102e46105e9366004612267565b611246565b3480156105fa57600080fd5b5061027f610609366004612418565b61127e565b34801561061a57600080fd5b5061031760ff5481565b34801561063057600080fd5b5060fc54610317565b34801561064557600080fd5b5061027f6112e5565b34801561065a57600080fd5b506102556106693660046121ef565b6001600160a01b039182166000908152606a6020908152604080832093909416825291909152205460ff1690565b3480156106a357600080fd5b506102e46112f5565b3480156106b857600080fd5b506102e46106c73660046121d3565b6113dc565b3480156106d857600080fd5b5061027f611452565b60006001600160e01b0319821663780e9d6360e01b1480610706575061070682611460565b90505b919050565b60606065805461071d90612767565b80601f016020809104026020016040519081016040528092919081815260200182805461074990612767565b80156107965780601f1061076b57610100808354040283529160200191610796565b820191906000526020600020905b81548152906001019060200180831161077957829003601f168201915b5050505050905090565b60006107ab826114b0565b506000908152606960205260409020546001600160a01b031690565b60006107d282610d82565b9050806001600160a01b0316836001600160a01b031614156108455760405162461bcd60e51b815260206004820152602160248201527f4552433732313a20617070726f76616c20746f2063757272656e74206f776e656044820152603960f91b60648201526084015b60405180910390fd5b336001600160a01b038216148061086157506108618133610669565b6108d35760405162461bcd60e51b815260206004820152603e60248201527f4552433732313a20617070726f76652063616c6c6572206973206e6f7420746f60448201527f6b656e206f776e6572206e6f7220617070726f76656420666f7220616c6c0000606482015260840161083c565b6108dd838361150f565b505050565b6108ea61157d565b80516108fe90610101906020840190612031565b5050565b61090a61157d565b610100546001600160a01b03161561092157600080fd5b61010080546001600160a01b0319166001600160a01b0392909216919091179055565b61094e33826115d7565b61096a5760405162461bcd60e51b815260040161083c9061268b565b6108dd838383611656565b600061098083610e71565b82106109e25760405162461bcd60e51b815260206004820152602b60248201527f455243373231456e756d657261626c653a206f776e657220696e646578206f7560448201526a74206f6620626f756e647360a81b606482015260840161083c565b506001600160a01b03919091166000908152609760209081526040808320938352929052205490565b610a1361157d565b610100546001600160a01b0316610a625760405162461bcd60e51b815260206004820152601360248201527210995b99599a58da585c9e481b9bdd081cd95d606a1b604482015260640161083c565b6101005460405147916001600160a01b03169082156108fc029083906000818181858888f19350505050610a9557600080fd5b50565b6108dd83838360405180602001604052806000815250611246565b60606000610ac083610e71565b905060008167ffffffffffffffff811115610aeb57634e487b7160e01b600052604160045260246000fd5b604051908082528060200260200182016040528015610b14578160200160208202803683370190505b50905060005b82811015610b6957610b2c8582610975565b828281518110610b4c57634e487b7160e01b600052603260045260246000fd5b602090810291909101015280610b61816127a2565b915050610b1a565b509392505050565b6000610b7c60995490565b8210610bdf5760405162461bcd60e51b815260206004820152602c60248201527f455243373231456e756d657261626c653a20676c6f62616c20696e646578206f60448201526b7574206f6620626f756e647360a01b606482015260840161083c565b60998281548110610c0057634e487b7160e01b600052603260045260246000fd5b90600052602060002001549050919050565b600054610100900460ff1615808015610c325750600054600160ff909116105b80610c4c5750303b158015610c4c575060005460ff166001145b610caf5760405162461bcd60e51b815260206004820152602e60248201527f496e697469616c697a61626c653a20636f6e747261637420697320616c72656160448201526d191e481a5b9a5d1a585b1a5e995960921b606482015260840161083c565b6000805460ff191660011790558015610cd2576000805461ff0019166101001790555b610cda6117fd565b610ce2611824565b610cea6117fd565b610cf48383611854565b60fb88905560fc86905560fd87905560fe8590558351610d1c90610102906020870190612031565b508015610d63576000805461ff0019169055604051600181527f7f26b83ff96e1f2b6a682f133852f6798a09c465da95921460cefb38474024989060200160405180910390a15b5050505050505050565b610d7561157d565b6108dd61010283836120b5565b6000818152606760205260408120546001600160a01b0316806107065760405162461bcd60e51b8152602060048201526018602482015277115490cdcc8c4e881a5b9d985b1a59081d1bdad95b88125160421b604482015260640161083c565b6101028054610df090612767565b80601f0160208091040260200160405190810160405280929190818152602001828054610e1c90612767565b8015610e695780601f10610e3e57610100808354040283529160200191610e69565b820191906000526020600020905b815481529060010190602001808311610e4c57829003601f168201915b505050505081565b60006001600160a01b038216610edb5760405162461bcd60e51b815260206004820152602960248201527f4552433732313a2061646472657373207a65726f206973206e6f7420612076616044820152683634b21037bbb732b960b91b606482015260840161083c565b506001600160a01b031660009081526068602052604090205490565b610eff61157d565b610f0960006118a2565b565b610f1361157d565b610100546001600160a01b0316610f625760405162461bcd60e51b815260206004820152601360248201527210995b99599a58da585c9e481b9bdd081cd95d606a1b604482015260640161083c565b610100805460ff600160a01b808304821615810260ff60a01b1990931692909217928390559104168015610f96575060ff54155b15610f0957610f096112f5565b610fab61157d565b60fb55565b60606066805461071d90612767565b61010054600160a01b900460ff1661100c5760405162461bcd60e51b815260206004820152601060248201526f14d85b19481b9bdd081cdd185c9d195960821b604482015260640161083c565b600061101760995490565b905060fe548211156110915760405162461bcd60e51b815260206004820152603d60248201527f596f752063616e6e6f74206d696e74206d6f7265207468616e204d41585f544f60448201527f4b454e535f5045525f4d494e5420746f6b656e73206174206f6e636521000000606482015260840161083c565b60fc5460fd546110a19190612724565b6110ab83836126d9565b11156110f95760405162461bcd60e51b815260206004820152601760248201527f4e6f7420656e6f75676820546f6b656e73206c6566742e000000000000000000604482015260640161083c565b3460fb54836111089190612705565b11156111565760405162461bcd60e51b815260206004820152601960248201527f496e636f6e73697374656e7420616d6f756e742073656e742100000000000000604482015260640161083c565b60005b828110156108dd576111743361116f83856126d9565b6118f4565b8061117e816127a2565b915050611159565b6108fe33838361190e565b61119961157d565b60fc548211156111f75760405162461bcd60e51b815260206004820152602360248201527f5468617420776f756c642065786365656420746865206d61782072657365727660448201526232b21760e91b606482015260840161083c565b600061120260995490565b905060005b8381101561122f5761121d8361116f83856126d9565b80611227816127a2565b915050611207565b508260fc5461123e9190612724565b60fc55505050565b61125033836115d7565b61126c5760405162461bcd60e51b815260040161083c9061268b565b611278848484846119dd565b50505050565b6060611289826114b0565b60006112936112e5565b905060008151116112b357604051806020016040528060008152506112de565b806112bd84611a10565b6040516020016112ce92919061252b565b6040516020818303038152906040525b9392505050565b6060610102805461071d90612767565b60ff54156113455760405162461bcd60e51b815260206004820152601d60248201527f5374617274696e6720696e64657820697320616c726561647920736574000000604482015260640161083c565b60004442604051602001611363929190918252602082015260400190565b60408051601f198184030181529190528051602090910120905061138860ff826127bd565b6113939060016126d9565b9050804310156113a1575060015b60006113ad8243612724565b60fd549091506113be9082406127bd565b60ff8190556108fe5760ff546113d59060016126d9565b60ff555050565b6113e461157d565b6001600160a01b0381166114495760405162461bcd60e51b815260206004820152602660248201527f4f776e61626c653a206e6577206f776e657220697320746865207a65726f206160448201526564647265737360d01b606482015260840161083c565b610a95816118a2565b6101018054610df090612767565b60006001600160e01b031982166380ac58cd60e01b148061149157506001600160e01b03198216635b5e139f60e01b145b8061070657506301ffc9a760e01b6001600160e01b0319831614610706565b6000818152606760205260409020546001600160a01b0316610a955760405162461bcd60e51b8152602060048201526018602482015277115490cdcc8c4e881a5b9d985b1a59081d1bdad95b88125160421b604482015260640161083c565b600081815260696020526040902080546001600160a01b0319166001600160a01b038416908117909155819061154482610d82565b6001600160a01b03167f8c5be1e5ebec7d5bd14f71427d1e84f3dd0314c0f7b2291e5b200ac8c7c3b92560405160405180910390a45050565b60c9546001600160a01b03163314610f095760405162461bcd60e51b815260206004820181905260248201527f4f776e61626c653a2063616c6c6572206973206e6f7420746865206f776e6572604482015260640161083c565b6000806115e383610d82565b9050806001600160a01b0316846001600160a01b0316148061162a57506001600160a01b038082166000908152606a602090815260408083209388168352929052205460ff165b8061164e5750836001600160a01b0316611643846107a0565b6001600160a01b0316145b949350505050565b826001600160a01b031661166982610d82565b6001600160a01b0316146116cd5760405162461bcd60e51b815260206004820152602560248201527f4552433732313a207472616e736665722066726f6d20696e636f72726563742060448201526437bbb732b960d91b606482015260840161083c565b6001600160a01b03821661172f5760405162461bcd60e51b8152602060048201526024808201527f4552433732313a207472616e7366657220746f20746865207a65726f206164646044820152637265737360e01b606482015260840161083c565b61173a838383611b2b565b61174560008261150f565b6001600160a01b038316600090815260686020526040812080546001929061176e908490612724565b90915550506001600160a01b038216600090815260686020526040812080546001929061179c9084906126d9565b909155505060008181526067602052604080822080546001600160a01b0319166001600160a01b0386811691821790925591518493918716917fddf252ad1be2c89b69c2b068fc378daa952ba7f163c4a11628f55a4df523b3ef91a46108dd565b600054610100900460ff16610f095760405162461bcd60e51b815260040161083c90612640565b600054610100900460ff1661184b5760405162461bcd60e51b815260040161083c90612640565b610f09336118a2565b600054610100900460ff1661187b5760405162461bcd60e51b815260040161083c90612640565b815161188e906065906020850190612031565b5080516108dd906066906020840190612031565b60c980546001600160a01b038381166001600160a01b0319831681179093556040519116919082907f8be0079c531659141344cd1fd0a4f28419497f9722a3daafe3b4186f6b6457e090600090a35050565b6108fe828260405180602001604052806000815250611be8565b816001600160a01b0316836001600160a01b031614156119705760405162461bcd60e51b815260206004820152601960248201527f4552433732313a20617070726f766520746f2063616c6c657200000000000000604482015260640161083c565b6001600160a01b038381166000818152606a6020908152604080832094871680845294825291829020805460ff191686151590811790915591519182527f17307eab39ab6107e8899845ad3d59bd9653f200f220920489ca2b5937696c31910160405180910390a3505050565b6119e8848484611656565b6119f484848484611c1b565b6112785760405162461bcd60e51b815260040161083c906125ee565b606081611a3557506040805180820190915260018152600360fc1b6020820152610709565b8160005b8115611a5f5780611a49816127a2565b9150611a589050600a836126f1565b9150611a39565b60008167ffffffffffffffff811115611a8857634e487b7160e01b600052604160045260246000fd5b6040519080825280601f01601f191660200182016040528015611ab2576020820181803683370190505b5090505b841561164e57611ac7600183612724565b9150611ad4600a866127bd565b611adf9060306126d9565b60f81b818381518110611b0257634e487b7160e01b600052603260045260246000fd5b60200101906001600160f81b031916908160001a905350611b24600a866126f1565b9450611ab6565b6001600160a01b038316611b8657611b8181609980546000838152609a60205260408120829055600182018355919091527f72a152ddfb8e864297c917af52ea6c1c68aead0fee1a62673fcc7e0c94979d000155565b611ba9565b816001600160a01b0316836001600160a01b031614611ba957611ba98382611d28565b6001600160a01b038216611bc557611bc081611dc5565b6108dd565b826001600160a01b0316826001600160a01b0316146108dd576108dd8282611e9e565b611bf28383611ee2565b611bff6000848484611c1b565b6108dd5760405162461bcd60e51b815260040161083c906125ee565b60006001600160a01b0384163b15611d1d57604051630a85bd0160e11b81526001600160a01b0385169063150b7a0290611c5f90339089908890889060040161255a565b602060405180830381600087803b158015611c7957600080fd5b505af1925050508015611ca9575060408051601f3d908101601f19168201909252611ca69181019061235c565b60015b611d03573d808015611cd7576040519150601f19603f3d011682016040523d82523d6000602084013e611cdc565b606091505b508051611cfb5760405162461bcd60e51b815260040161083c906125ee565b805181602001fd5b6001600160e01b031916630a85bd0160e11b14905061164e565b506001949350505050565b60006001611d3584610e71565b611d3f9190612724565b600083815260986020526040902054909150808214611d92576001600160a01b03841660009081526097602090815260408083208584528252808320548484528184208190558352609890915290208190555b5060009182526098602090815260408084208490556001600160a01b039094168352609781528383209183525290812055565b609954600090611dd790600190612724565b6000838152609a602052604081205460998054939450909284908110611e0d57634e487b7160e01b600052603260045260246000fd5b906000526020600020015490508060998381548110611e3c57634e487b7160e01b600052603260045260246000fd5b6000918252602080832090910192909255828152609a90915260408082208490558582528120556099805480611e8257634e487b7160e01b600052603160045260246000fd5b6001900381819060005260206000200160009055905550505050565b6000611ea983610e71565b6001600160a01b039093166000908152609760209081526040808320868452825280832085905593825260989052919091209190915550565b6001600160a01b038216611f385760405162461bcd60e51b815260206004820181905260248201527f4552433732313a206d696e7420746f20746865207a65726f2061646472657373604482015260640161083c565b6000818152606760205260409020546001600160a01b031615611f9d5760405162461bcd60e51b815260206004820152601c60248201527f4552433732313a20746f6b656e20616c7265616479206d696e74656400000000604482015260640161083c565b611fa960008383611b2b565b6001600160a01b0382166000908152606860205260408120805460019290611fd29084906126d9565b909155505060008181526067602052604080822080546001600160a01b0319166001600160a01b03861690811790915590518392907fddf252ad1be2c89b69c2b068fc378daa952ba7f163c4a11628f55a4df523b3ef908290a46108fe565b82805461203d90612767565b90600052602060002090601f01602090048101928261205f57600085556120a5565b82601f1061207857805160ff19168380011785556120a5565b828001600101855582156120a5579182015b828111156120a557825182559160200191906001019061208a565b506120b1929150612129565b5090565b8280546120c190612767565b90600052602060002090601f0160209004810192826120e357600085556120a5565b82601f106120fc5782800160ff198235161785556120a5565b828001600101855582156120a5579182015b828111156120a557823582559160200191906001019061210e565b5b808211156120b1576000815560010161212a565b600067ffffffffffffffff80841115612159576121596127fd565b604051601f8501601f19908116603f01168101908282118183101715612181576121816127fd565b8160405280935085815286868601111561219a57600080fd5b858560208301376000602087830101525050509392505050565b600082601f8301126121c4578081fd5b6112de8383356020850161213e565b6000602082840312156121e4578081fd5b81356112de81612813565b60008060408385031215612201578081fd5b823561220c81612813565b9150602083013561221c81612813565b809150509250929050565b60008060006060848603121561223b578081fd5b833561224681612813565b9250602084013561225681612813565b929592945050506040919091013590565b6000806000806080858703121561227c578081fd5b843561228781612813565b9350602085013561229781612813565b925060408501359150606085013567ffffffffffffffff8111156122b9578182fd5b8501601f810187136122c9578182fd5b6122d88782356020840161213e565b91505092959194509250565b600080604083850312156122f6578182fd5b823561230181612813565b91506020830135801515811461221c578182fd5b60008060408385031215612327578182fd5b823561233281612813565b946020939093013593505050565b600060208284031215612351578081fd5b81356112de81612828565b60006020828403121561236d578081fd5b81516112de81612828565b6000806020838503121561238a578182fd5b823567ffffffffffffffff808211156123a1578384fd5b818501915085601f8301126123b4578384fd5b8135818111156123c2578485fd5b8660208285010111156123d3578485fd5b60209290920196919550909350505050565b6000602082840312156123f6578081fd5b813567ffffffffffffffff81111561240c578182fd5b61164e848285016121b4565b600060208284031215612429578081fd5b5035919050565b60008060408385031215612442578182fd5b82359150602083013561221c81612813565b600080600080600080600060e0888a03121561246e578485fd5b87359650602088013595506040880135945060608801359350608088013567ffffffffffffffff808211156124a1578485fd5b6124ad8b838c016121b4565b945060a08a01359150808211156124c2578384fd5b6124ce8b838c016121b4565b935060c08a01359150808211156124e3578283fd5b506124f08a828b016121b4565b91505092959891949750929550565b6000815180845261251781602086016020860161273b565b601f01601f19169290920160200192915050565b6000835161253d81846020880161273b565b83519083019061255181836020880161273b565b01949350505050565b6001600160a01b038581168252841660208201526040810183905260806060820181905260009061258d908301846124ff565b9695505050505050565b6020808252825182820181905260009190848201906040850190845b818110156125cf578351835292840192918401916001016125b3565b50909695505050505050565b6000602082526112de60208301846124ff565b60208082526032908201527f4552433732313a207472616e7366657220746f206e6f6e20455243373231526560408201527131b2b4bb32b91034b6b83632b6b2b73a32b960711b606082015260800190565b6020808252602b908201527f496e697469616c697a61626c653a20636f6e7472616374206973206e6f74206960408201526a6e697469616c697a696e6760a81b606082015260800190565b6020808252602e908201527f4552433732313a2063616c6c6572206973206e6f7420746f6b656e206f776e6560408201526d1c881b9bdc88185c1c1c9bdd995960921b606082015260800190565b600082198211156126ec576126ec6127d1565b500190565b600082612700576127006127e7565b500490565b600081600019048311821515161561271f5761271f6127d1565b500290565b600082821015612736576127366127d1565b500390565b60005b8381101561275657818101518382015260200161273e565b838111156112785750506000910152565b60028104600182168061277b57607f821691505b6020821081141561279c57634e487b7160e01b600052602260045260246000fd5b50919050565b60006000198214156127b6576127b66127d1565b5060010190565b6000826127cc576127cc6127e7565b500690565b634e487b7160e01b600052601160045260246000fd5b634e487b7160e01b600052601260045260246000fd5b634e487b7160e01b600052604160045260246000fd5b6001600160a01b0381168114610a9557600080fd5b6001600160e01b031981168114610a9557600080fdfea264697066735822122019e129759bcddac065ca4e87d28d9552b1325ac3714f55f81678bfe2d2264ddd64736f6c63430008020033",
  "linkReferences": {},
  "deployedLinkReferences": {}
}